{
  "address": "0x20364B8d7B965B6FBdE11cb18B7Af9cd34FBF28F",
  "abi": [
    {
      "inputs": [
        {
          "internalType": "uint256",
          "name": "n",
          "type": "uint256"
        }
      ],
      "name": "isOdd",
      "outputs": [
        {
          "internalType": "bool",
          "name": "",
          "type": "bool"
        }
      ],
      "stateMutability": "pure",
      "type": "function"
    }
  ],
  "transactionHash": "0x4c091a619212bdde3ed495645fade47f0925d76a48034b61d2a0a9edd971789b",
  "args": [],
  "numDeployments": 1,
  "solcInputHash": "98d8de6e4aba0449c43a2f963b60ebdb",
  "bytecode": "0x610243610053600b82828239805160001a607314610046577f4e487b7100000000000000000000000000000000000000000000000000000000600052600060045260246000fd5b30600052607381538281f3fe73000000000000000000000000000000000000000030146080604052600436106100355760003560e01c8063d8b3a2eb1461003a575b600080fd5b610054600480360381019061004f9190610127565b61006a565b604051610061919061016f565b60405180910390f35b600073155249849d1c0640DA809a8c7C4C4c9cd7b3bde3632a2e1320836040518263ffffffff1660e01b81526004016100a39190610199565b602060405180830381865af41580156100c0573d6000803e3d6000fd5b505050506040513d601f19601f820116820180604052508101906100e491906101e0565b159050919050565b600080fd5b6000819050919050565b610104816100f1565b811461010f57600080fd5b50565b600081359050610121816100fb565b92915050565b60006020828403121561013d5761013c6100ec565b5b600061014b84828501610112565b91505092915050565b60008115159050919050565b61016981610154565b82525050565b60006020820190506101846000830184610160565b92915050565b610193816100f1565b82525050565b60006020820190506101ae600083018461018a565b92915050565b6101bd81610154565b81146101c857600080fd5b50565b6000815190506101da816101b4565b92915050565b6000602082840312156101f6576101f56100ec565b5b6000610204848285016101cb565b9150509291505056fea2646970667358221220a842ad073b2ebfc2b20fe063daaf7637627dc218f1c21a704ea4ef05e61c961664736f6c634300080b0033",
  "deployedBytecode": "0x73000000000000000000000000000000000000000030146080604052600436106100355760003560e01c8063d8b3a2eb1461003a575b600080fd5b610054600480360381019061004f9190610127565b61006a565b604051610061919061016f565b60405180910390f35b600073__$6ad30996409d058139477db06ae39abaac$__632a2e1320836040518263ffffffff1660e01b81526004016100a39190610199565b602060405180830381865af41580156100c0573d6000803e3d6000fd5b505050506040513d601f19601f820116820180604052508101906100e491906101e0565b159050919050565b600080fd5b6000819050919050565b610104816100f1565b811461010f57600080fd5b50565b600081359050610121816100fb565b92915050565b60006020828403121561013d5761013c6100ec565b5b600061014b84828501610112565b91505092915050565b60008115159050919050565b61016981610154565b82525050565b60006020820190506101846000830184610160565b92915050565b610193816100f1565b82525050565b60006020820190506101ae600083018461018a565b92915050565b6101bd81610154565b81146101c857600080fd5b50565b6000815190506101da816101b4565b92915050565b6000602082840312156101f6576101f56100ec565b5b6000610204848285016101cb565b9150509291505056fea2646970667358221220a842ad073b2ebfc2b20fe063daaf7637627dc218f1c21a704ea4ef05e61c961664736f6c634300080b0033",
  "libraries": {
    "Math": "0x155249849d1c0640DA809a8c7C4C4c9cd7b3bde3"
  },
  "devdoc": {
    "kind": "dev",
    "methods": {},
    "version": 1
  },
  "userdoc": {
    "kind": "user",
    "methods": {},
    "version": 1
  },
  "storageLayout": {
    "storage": [],
    "types": null
  }
}