{
  "address": "0x86D8a35a49e64D61Fe8c0eBE3c0145a0f865c02c",
  "abi": [
    {
      "inputs": [
        {
          "internalType": "uint256",
          "name": "n",
          "type": "uint256"
        }
      ],
      "name": "isEven",
      "outputs": [
        {
          "internalType": "bool",
          "name": "",
          "type": "bool"
        }
      ],
      "stateMutability": "pure",
      "type": "function"
    }
  ],
  "transactionHash": "0xe36f9113d05f3d071ade925ffed4ed81d3ccaf7d4c0d9741725b904e2d4d5371",
  "args": [],
  "numDeployments": 1,
  "solcInputHash": "9b056e4e6ee151036e59e452a33693ad",
  "bytecode": "0x6101b6610053600b82828239805160001a607314610046577f4e487b7100000000000000000000000000000000000000000000000000000000600052600060045260246000fd5b30600052607381538281f3fe73000000000000000000000000000000000000000030146080604052600436106100355760003560e01c80632a2e13201461003a575b600080fd5b610054600480360381019061004f91906100bd565b61006a565b6040516100619190610105565b60405180910390f35b60008060028361007a919061014f565b149050919050565b600080fd5b6000819050919050565b61009a81610087565b81146100a557600080fd5b50565b6000813590506100b781610091565b92915050565b6000602082840312156100d3576100d2610082565b5b60006100e1848285016100a8565b91505092915050565b60008115159050919050565b6100ff816100ea565b82525050565b600060208201905061011a60008301846100f6565b92915050565b7f4e487b7100000000000000000000000000000000000000000000000000000000600052601260045260246000fd5b600061015a82610087565b915061016583610087565b92508261017557610174610120565b5b82820690509291505056fea2646970667358221220801caf131c6a43288b814c77c1ac09392d309a51ce18b0bde7dcba9a92a3d47f64736f6c63430008170033",
  "devdoc": {
    "kind": "dev",
    "methods": {},
    "version": 1
  },
  "userdoc": {
    "kind": "user",
    "methods": {},
    "version": 1
  },
  "storageLayout": {
    "storage": [],
    "types": null
  }
}