{
  "address": "0xCb199A11D9ace8493C55A238AD9AdDa633947824",
  "abi": [
    {
      "inputs": [
        {
          "internalType": "uint256",
          "name": "n",
          "type": "uint256"
        }
      ],
      "name": "isOdd",
      "outputs": [
        {
          "internalType": "bool",
          "name": "",
          "type": "bool"
        }
      ],
      "stateMutability": "pure",
      "type": "function"
    }
  ],
  "transactionHash": "0x9b159a8cbb153f180f3ab80d94f5bae282ce24ac1574ef1301f9b5292edc01a9",
  "args": [],
  "numDeployments": 1,
  "solcInputHash": "0368163eb771ff6b86852a767dacd0b3",
  "bytecode": "0x610243610053600b82828239805160001a607314610046577f4e487b7100000000000000000000000000000000000000000000000000000000600052600060045260246000fd5b30600052607381538281f3fe73000000000000000000000000000000000000000030146080604052600436106100355760003560e01c8063d8b3a2eb1461003a575b600080fd5b610054600480360381019061004f9190610127565b61006a565b604051610061919061016f565b60405180910390f35b60007386D8a35a49e64D61Fe8c0eBE3c0145a0f865c02c632a2e1320836040518263ffffffff1660e01b81526004016100a39190610199565b602060405180830381865af41580156100c0573d6000803e3d6000fd5b505050506040513d601f19601f820116820180604052508101906100e491906101e0565b159050919050565b600080fd5b6000819050919050565b610104816100f1565b811461010f57600080fd5b50565b600081359050610121816100fb565b92915050565b60006020828403121561013d5761013c6100ec565b5b600061014b84828501610112565b91505092915050565b60008115159050919050565b61016981610154565b82525050565b60006020820190506101846000830184610160565b92915050565b610193816100f1565b82525050565b60006020820190506101ae600083018461018a565b92915050565b6101bd81610154565b81146101c857600080fd5b50565b6000815190506101da816101b4565b92915050565b6000602082840312156101f6576101f56100ec565b5b6000610204848285016101cb565b9150509291505056fea2646970667358221220ccc135cba780ac94fdef2c5818cfc4095a08d66bae69da1afd919731371badbd64736f6c63430008170033",
  "deployedBytecode": "0x73000000000000000000000000000000000000000030146080604052600436106100355760003560e01c8063d8b3a2eb1461003a575b600080fd5b610054600480360381019061004f9190610127565b61006a565b604051610061919061016f565b60405180910390f35b600073__$6ad30996409d058139477db06ae39abaac$__632a2e1320836040518263ffffffff1660e01b81526004016100a39190610199565b602060405180830381865af41580156100c0573d6000803e3d6000fd5b505050506040513d601f19601f820116820180604052508101906100e491906101e0565b159050919050565b600080fd5b6000819050919050565b610104816100f1565b811461010f57600080fd5b50565b600081359050610121816100fb565b92915050565b60006020828403121561013d5761013c6100ec565b5b600061014b84828501610112565b91505092915050565b60008115159050919050565b61016981610154565b82525050565b60006020820190506101846000830184610160565b92915050565b610193816100f1565b82525050565b60006020820190506101ae600083018461018a565b92915050565b6101bd81610154565b81146101c857600080fd5b50565b6000815190506101da816101b4565b92915050565b6000602082840312156101f6576101f56100ec565b5b6000610204848285016101cb565b9150509291505056fea2646970667358221220ccc135cba780ac94fdef2c5818cfc4095a08d66bae69da1afd919731371badbd64736f6c63430008170033",
  "libraries": {
    "Math": "0x86D8a35a49e64D61Fe8c0eBE3c0145a0f865c02c"
  },
  "devdoc": {
    "kind": "dev",
    "methods": {},
    "version": 1
  },
  "userdoc": {
    "kind": "user",
    "methods": {},
    "version": 1
  },
  "storageLayout": {
    "storage": [],
    "types": null
  }
}