{
  "address": "0x8977457936461132c9c7abD3735bA6f3B6E7ef29",
  "abi": [
    {
      "inputs": [
        {
          "internalType": "uint256",
          "name": "n",
          "type": "uint256"
        }
      ],
      "name": "isEven",
      "outputs": [
        {
          "internalType": "bool",
          "name": "",
          "type": "bool"
        }
      ],
      "stateMutability": "pure",
      "type": "function"
    }
  ],
  "transactionHash": "0xd1546e5d8c5c1b60d45e515dbc73563046f93c5e4ebb75ade79bb1442fcfd613",
  "args": [],
  "numDeployments": 2,
  "solcInputHash": "6ca896b443578e7f9a4e8b5e1fe84def",
  "bytecode": "0x6101b6610053600b82828239805160001a607314610046577f4e487b7100000000000000000000000000000000000000000000000000000000600052600060045260246000fd5b30600052607381538281f3fe73000000000000000000000000000000000000000030146080604052600436106100355760003560e01c80632a2e13201461003a575b600080fd5b610054600480360381019061004f91906100bd565b61006a565b6040516100619190610105565b60405180910390f35b60008060028361007a919061014f565b149050919050565b600080fd5b6000819050919050565b61009a81610087565b81146100a557600080fd5b50565b6000813590506100b781610091565b92915050565b6000602082840312156100d3576100d2610082565b5b60006100e1848285016100a8565b91505092915050565b60008115159050919050565b6100ff816100ea565b82525050565b600060208201905061011a60008301846100f6565b92915050565b7f4e487b7100000000000000000000000000000000000000000000000000000000600052601260045260246000fd5b600061015a82610087565b915061016583610087565b92508261017557610174610120565b5b82820690509291505056fea2646970667358221220badcd2cd61f40e02188dc02323e4e1608edb4590c29db92c5b324b710d31765f64736f6c634300080b0033",
  "devdoc": {
    "kind": "dev",
    "methods": {},
    "version": 1
  },
  "userdoc": {
    "kind": "user",
    "methods": {},
    "version": 1
  },
  "storageLayout": {
    "storage": [],
    "types": null
  }
}